{
  "_format": "hh-sol-artifact-1",
  "contractName": "helloWorld",
  "sourceName": "contracts/helloWorld.sol",
  "abi": [
    {
      "inputs": [],
      "name": "getter",
      "outputs": [
        {
          "internalType": "string",
          "name": "",
          "type": "string"
        }
      ],
      "stateMutability": "view",
      "type": "function"
    }
  ],
  "bytecode": "0x608060405260405180606001604052806032815260200161038a6032913960009080519060200190610032929190610045565b5034801561003f57600080fd5b50610149565b82805461005190610117565b90600052602060002090601f01602090048101928261007357600085556100ba565b82601f1061008c57805160ff19168380011785556100ba565b828001600101855582156100ba579182015b828111156100b957825182559160200191906001019061009e565b5b5090506100c791906100cb565b5090565b5b808211156100e45760008160009055506001016100cc565b5090565b7f4e487b7100000000000000000000000000000000000000000000000000000000600052602260045260246000fd5b6000600282049050600182168061012f57607f821691505b60208210811415610143576101426100e8565b5b50919050565b610232806101586000396000f3fe608060405234801561001057600080fd5b506004361061002b5760003560e01c8063993a04b714610030575b600080fd5b61003861004e565b6040516100459190610179565b60405180910390f35b60606000805461005d906101ca565b80601f0160208091040260200160405190810160405280929190818152602001828054610089906101ca565b80156100d65780601f106100ab576101008083540402835291602001916100d6565b820191906000526020600020905b8154815290600101906020018083116100b957829003601f168201915b5050505050905090565b600081519050919050565b600082825260208201905092915050565b60005b8381101561011a5780820151818401526020810190506100ff565b83811115610129576000848401525b50505050565b6000601f19601f8301169050919050565b600061014b826100e0565b61015581856100eb565b93506101658185602086016100fc565b61016e8161012f565b840191505092915050565b600060208201905081810360008301526101938184610140565b905092915050565b7f4e487b7100000000000000000000000000000000000000000000000000000000600052602260045260246000fd5b600060028204905060018216806101e257607f821691505b602082108114156101f6576101f561019b565b5b5091905056fea264697066735822122006325ccc4d15a012a614437aa3f94e2ea4d46b8d1522975c08d677b41c9f5a6564736f6c634300080a0033426f7275746f202d204e617275746f204e6578742047656e65726174696f6e73202d20313731205b3732307020783236355d",
  "linkReferences": {},
  "deployedLinkReferences": {}
}